{
  "contractName": "BugBounty",
  "abi": [
    {
      "anonymous": false,
      "inputs": [
        {
          "indexed": false,
          "internalType": "uint256",
          "name": "bountyId",
          "type": "uint256"
        },
        {
          "indexed": false,
          "internalType": "string",
          "name": "title",
          "type": "string"
        },
        {
          "indexed": false,
          "internalType": "uint256",
          "name": "reward",
          "type": "uint256"
        },
        {
          "indexed": false,
          "internalType": "address",
          "name": "creator",
          "type": "address"
        }
      ],
      "name": "BountyPosted",
      "type": "event"
    },
    {
      "anonymous": false,
      "inputs": [
        {
          "indexed": false,
          "internalType": "uint256",
          "name": "bountyId",
          "type": "uint256"
        },
        {
          "indexed": false,
          "internalType": "string",
          "name": "description",
          "type": "string"
        },
        {
          "indexed": false,
          "internalType": "address",
          "name": "researcher",
          "type": "address"
        }
      ],
      "name": "ReportSubmitted",
      "type": "event"
    },
    {
      "anonymous": false,
      "inputs": [
        {
          "indexed": false,
          "internalType": "uint256",
          "name": "bountyId",
          "type": "uint256"
        },
        {
          "indexed": false,
          "internalType": "address",
          "name": "researcher",
          "type": "address"
        }
      ],
      "name": "RewardReleased",
      "type": "event"
    },
    {
      "inputs": [
        {
          "internalType": "uint256",
          "name": "",
          "type": "uint256"
        }
      ],
      "name": "bounties",
      "outputs": [
        {
          "internalType": "uint256",
          "name": "id",
          "type": "uint256"
        },
        {
          "internalType": "string",
          "name": "title",
          "type": "string"
        },
        {
          "internalType": "uint256",
          "name": "reward",
          "type": "uint256"
        },
        {
          "internalType": "address",
          "name": "creator",
          "type": "address"
        },
        {
          "internalType": "bool",
          "name": "isClaimed",
          "type": "bool"
        }
      ],
      "stateMutability": "view",
      "type": "function"
    },
    {
      "inputs": [],
      "name": "bountyCount",
      "outputs": [
        {
          "internalType": "uint256",
          "name": "",
          "type": "uint256"
        }
      ],
      "stateMutability": "view",
      "type": "function"
    },
    {
      "inputs": [
        {
          "internalType": "uint256",
          "name": "",
          "type": "uint256"
        },
        {
          "internalType": "uint256",
          "name": "",
          "type": "uint256"
        }
      ],
      "name": "reports",
      "outputs": [
        {
          "internalType": "uint256",
          "name": "bountyId",
          "type": "uint256"
        },
        {
          "internalType": "string",
          "name": "description",
          "type": "string"
        },
        {
          "internalType": "address",
          "name": "researcher",
          "type": "address"
        }
      ],
      "stateMutability": "view",
      "type": "function"
    },
    {
      "inputs": [
        {
          "internalType": "string",
          "name": "title",
          "type": "string"
        }
      ],
      "name": "postBounty",
      "outputs": [],
      "stateMutability": "payable",
      "type": "function"
    },
    {
      "inputs": [
        {
          "internalType": "uint256",
          "name": "bountyId",
          "type": "uint256"
        },
        {
          "internalType": "string",
          "name": "description",
          "type": "string"
        }
      ],
      "name": "submitReport",
      "outputs": [],
      "stateMutability": "nonpayable",
      "type": "function"
    },
    {
      "inputs": [
        {
          "internalType": "uint256",
          "name": "bountyId",
          "type": "uint256"
        },
        {
          "internalType": "uint256",
          "name": "reportIndex",
          "type": "uint256"
        }
      ],
      "name": "releaseReward",
      "outputs": [],
      "stateMutability": "nonpayable",
      "type": "function"
    }
  ],
  "bytecode": "0x608060405234801561000f575f80fd5b506111f88061001d5f395ff3fe608060405260043610610054575f3560e01c80632d283db5146100585780633e362c961461009657806390030457146100c0578063a5e7ef18146100e8578063dc2f874414610110578063fd04d18814610150575b5f80fd5b348015610063575f80fd5b5061007e6004803603810190610079919061084c565b61016c565b60405161008d93929190610962565b60405180910390f35b3480156100a1575f80fd5b506100aa610251565b6040516100b7919061099e565b60405180910390f35b3480156100cb575f80fd5b506100e660048036038101906100e19190610ae3565b610256565b005b3480156100f3575f80fd5b5061010e6004803603810190610109919061084c565b610363565b005b34801561011b575f80fd5b5061013660048036038101906101319190610b3d565b6105a8565b604051610147959493929190610b82565b60405180910390f35b61016a60048036038101906101659190610bda565b61068c565b005b6002602052815f5260405f208181548110610185575f80fd5b905f5260205f2090600302015f9150915050805f0154908060010180546101ab90610c4e565b80601f01602080910402602001604051908101604052809291908181526020018280546101d790610c4e565b80156102225780601f106101f957610100808354040283529160200191610222565b820191905f5260205f20905b81548152906001019060200180831161020557829003601f168201915b505050505090806002015f9054906101000a900473ffffffffffffffffffffffffffffffffffffffff16905083565b5f5481565b60025f8381526020019081526020015f2060405180606001604052808481526020018381526020013373ffffffffffffffffffffffffffffffffffffffff16815250908060018154018082558091505060019003905f5260205f2090600302015f909190919091505f820151815f015560208201518160010190816102db9190610e1b565b506040820151816002015f6101000a81548173ffffffffffffffffffffffffffffffffffffffff021916908373ffffffffffffffffffffffffffffffffffffffff16021790555050507ff41ea29a335564573dd96630877e28e7529614e42115e1667bb721cb1a8bd0b082823360405161035793929190610962565b60405180910390a15050565b5f60015f8481526020019081526020015f209050806003015f9054906101000a900473ffffffffffffffffffffffffffffffffffffffff1673ffffffffffffffffffffffffffffffffffffffff163373ffffffffffffffffffffffffffffffffffffffff1614610408576040517f08c379a00000000000000000000000000000000000000000000000000000000081526004016103ff90610f5a565b60405180910390fd5b8060030160149054906101000a900460ff161561045a576040517f08c379a000000000000000000000000000000000000000000000000000000000815260040161045190610fc2565b60405180910390fd5b8160025f8581526020019081526020015f2080549050116104b0576040517f08c379a00000000000000000000000000000000000000000000000000000000081526004016104a79061102a565b60405180910390fd5b60018160030160146101000a81548160ff0219169083151502179055505f60025f8581526020019081526020015f2083815481106104f1576104f0611048565b5b905f5260205f2090600302016002015f9054906101000a900473ffffffffffffffffffffffffffffffffffffffff1690508073ffffffffffffffffffffffffffffffffffffffff166108fc836002015490811502906040515f60405180830381858888f19350505050158015610569573d5f803e3d5ffd5b507e0f84ce2a2b1763872d5ed5845b0df0069ce5eaee754592e2154e654f3f326a848260405161059a929190611075565b60405180910390a150505050565b6001602052805f5260405f205f91509050805f0154908060010180546105cd90610c4e565b80601f01602080910402602001604051908101604052809291908181526020018280546105f990610c4e565b80156106445780601f1061061b57610100808354040283529160200191610644565b820191905f5260205f20905b81548152906001019060200180831161062757829003601f168201915b505050505090806002015490806003015f9054906101000a900473ffffffffffffffffffffffffffffffffffffffff16908060030160149054906101000a900460ff16905085565b5f34116106ce576040517f08c379a00000000000000000000000000000000000000000000000000000000081526004016106c5906110e6565b60405180910390fd5b6040518060a001604052805f5481526020018281526020013481526020013373ffffffffffffffffffffffffffffffffffffffff1681526020015f151581525060015f805481526020019081526020015f205f820151815f0155602082015181600101908161073d9190610e1b565b50604082015181600201556060820151816003015f6101000a81548173ffffffffffffffffffffffffffffffffffffffff021916908373ffffffffffffffffffffffffffffffffffffffff16021790555060808201518160030160146101000a81548160ff0219169083151502179055509050507f074f7b5b61eb191033a7c4272e43f1dcd2f82043791d2de892084dbcb89183505f548234336040516107e79493929190611104565b60405180910390a15f808154809291906108009061117b565b919050555050565b5f604051905090565b5f80fd5b5f80fd5b5f819050919050565b61082b81610819565b8114610835575f80fd5b50565b5f8135905061084681610822565b92915050565b5f806040838503121561086257610861610811565b5b5f61086f85828601610838565b925050602061088085828601610838565b9150509250929050565b61089381610819565b82525050565b5f81519050919050565b5f82825260208201905092915050565b5f5b838110156108d05780820151818401526020810190506108b5565b5f8484015250505050565b5f601f19601f8301169050919050565b5f6108f582610899565b6108ff81856108a3565b935061090f8185602086016108b3565b610918816108db565b840191505092915050565b5f73ffffffffffffffffffffffffffffffffffffffff82169050919050565b5f61094c82610923565b9050919050565b61095c81610942565b82525050565b5f6060820190506109755f83018661088a565b818103602083015261098781856108eb565b90506109966040830184610953565b949350505050565b5f6020820190506109b15f83018461088a565b92915050565b5f80fd5b5f80fd5b7f4e487b71000000000000000000000000000000000000000000000000000000005f52604160045260245ffd5b6109f5826108db565b810181811067ffffffffffffffff82111715610a1457610a136109bf565b5b80604052505050565b5f610a26610808565b9050610a3282826109ec565b919050565b5f67ffffffffffffffff821115610a5157610a506109bf565b5b610a5a826108db565b9050602081019050919050565b828183375f83830152505050565b5f610a87610a8284610a37565b610a1d565b905082815260208101848484011115610aa357610aa26109bb565b5b610aae848285610a67565b509392505050565b5f82601f830112610aca57610ac96109b7565b5b8135610ada848260208601610a75565b91505092915050565b5f8060408385031215610af957610af8610811565b5b5f610b0685828601610838565b925050602083013567ffffffffffffffff811115610b2757610b26610815565b5b610b3385828601610ab6565b9150509250929050565b5f60208284031215610b5257610b51610811565b5b5f610b5f84828501610838565b91505092915050565b5f8115159050919050565b610b7c81610b68565b82525050565b5f60a082019050610b955f83018861088a565b8181036020830152610ba781876108eb565b9050610bb6604083018661088a565b610bc36060830185610953565b610bd06080830184610b73565b9695505050505050565b5f60208284031215610bef57610bee610811565b5b5f82013567ffffffffffffffff811115610c0c57610c0b610815565b5b610c1884828501610ab6565b91505092915050565b7f4e487b71000000000000000000000000000000000000000000000000000000005f52602260045260245ffd5b5f6002820490506001821680610c6557607f821691505b602082108103610c7857610c77610c21565b5b50919050565b5f819050815f5260205f209050919050565b5f6020601f8301049050919050565b5f82821b905092915050565b5f60088302610cda7fffffffffffffffffffffffffffffffffffffffffffffffffffffffffffffffff82610c9f565b610ce48683610c9f565b95508019841693508086168417925050509392505050565b5f819050919050565b5f610d1f610d1a610d1584610819565b610cfc565b610819565b9050919050565b5f819050919050565b610d3883610d05565b610d4c610d4482610d26565b848454610cab565b825550505050565b5f90565b610d60610d54565b610d6b818484610d2f565b505050565b5b81811015610d8e57610d835f82610d58565b600181019050610d71565b5050565b601f821115610dd357610da481610c7e565b610dad84610c90565b81016020851015610dbc578190505b610dd0610dc885610c90565b830182610d70565b50505b505050565b5f82821c905092915050565b5f610df35f1984600802610dd8565b1980831691505092915050565b5f610e0b8383610de4565b9150826002028217905092915050565b610e2482610899565b67ffffffffffffffff811115610e3d57610e3c6109bf565b5b610e478254610c4e565b610e52828285610d92565b5f60209050601f831160018114610e83575f8415610e71578287015190505b610e7b8582610e00565b865550610ee2565b601f198416610e9186610c7e565b5f5b82811015610eb857848901518255600182019150602085019450602081019050610e93565b86831015610ed55784890151610ed1601f891682610de4565b8355505b6001600288020188555050505b505050505050565b7f4f6e6c79207468652063726561746f722063616e2072656c65617365207265775f8201527f617264732e000000000000000000000000000000000000000000000000000000602082015250565b5f610f446025836108a3565b9150610f4f82610eea565b604082019050919050565b5f6020820190508181035f830152610f7181610f38565b9050919050565b7f426f756e747920616c726561647920636c61696d6564000000000000000000005f82015250565b5f610fac6016836108a3565b9150610fb782610f78565b602082019050919050565b5f6020820190508181035f830152610fd981610fa0565b9050919050565b7f496e76616c6964207265706f727420696e6465780000000000000000000000005f82015250565b5f6110146014836108a3565b915061101f82610fe0565b602082019050919050565b5f6020820190508181035f83015261104181611008565b9050919050565b7f4e487b71000000000000000000000000000000000000000000000000000000005f52603260045260245ffd5b5f6040820190506110885f83018561088a565b6110956020830184610953565b9392505050565b7f526577617264206d7573742062652067726561746572207468616e20300000005f82015250565b5f6110d0601d836108a3565b91506110db8261109c565b602082019050919050565b5f6020820190508181035f8301526110fd816110c4565b9050919050565b5f6080820190506111175f83018761088a565b818103602083015261112981866108eb565b9050611138604083018561088a565b6111456060830184610953565b95945050505050565b7f4e487b71000000000000000000000000000000000000000000000000000000005f52601160045260245ffd5b5f61118582610819565b91507fffffffffffffffffffffffffffffffffffffffffffffffffffffffffffffffff82036111b7576111b661114e565b5b60018201905091905056fea2646970667358221220eea5db6558843e2a5e25d1715815c4aa54d58c0d71bad168f72f820c222eff7c64736f6c63430008150033",
  "immutableReferences": {},
  "source": "// SPDX-License-Identifier: MIT\npragma solidity ^0.8.0;\n\ncontract BugBounty {\n\n    struct Bounty {\n        uint id;\n        string title;\n        uint reward;\n        address creator;\n        bool isClaimed;\n    }\n\n    struct Report {\n        uint bountyId;\n        string description;\n        address researcher;\n    }\n\n    uint public bountyCount;\n    mapping(uint => Bounty) public bounties;\n    mapping(uint => Report[]) public reports;\n\n    event BountyPosted(uint bountyId, string title, uint reward, address creator);\n    event ReportSubmitted(uint bountyId, string description, address researcher);\n    event RewardReleased(uint bountyId, address researcher);\n\n    function postBounty(string memory title) public payable {\n        require(msg.value > 0, \"Reward must be greater than 0\");\n        bounties[bountyCount] = Bounty(bountyCount, title, msg.value, msg.sender, false);\n        emit BountyPosted(bountyCount, title, msg.value, msg.sender);\n        bountyCount++;\n    }\n\n    function submitReport(uint bountyId, string memory description) public {\n        reports[bountyId].push(Report(bountyId, description, msg.sender));\n        emit ReportSubmitted(bountyId, description, msg.sender);\n    }\n\n    function releaseReward(uint bountyId, uint reportIndex) public {\n        Bounty storage bounty = bounties[bountyId];\n        require(msg.sender == bounty.creator, \"Only the creator can release rewards.\");\n        require(!bounty.isClaimed, \"Bounty already claimed\");\n        require(reports[bountyId].length > reportIndex, \"Invalid report index\");\n\n        bounty.isClaimed = true;\n        address researcher = reports[bountyId][reportIndex].researcher;\n        payable(researcher).transfer(bounty.reward);\n        emit RewardReleased(bountyId, researcher);\n    }\n}\n\n",
  "sourcePath": "/home/kali/blockchain-bug-bounty/contracts/BugBounty.sol",
  "compiler": {
    "name": "solc",
    "version": "0.8.21+commit.d9974bed.Emscripten.clang"
  },
  "schemaVersion": "3.4.16",
  "updatedAt": "2024-11-01T06:31:16.411Z",
  "devdoc": {
    "kind": "dev",
    "methods": {},
    "version": 1
  },
  "userdoc": {
    "kind": "user",
    "methods": {},
    "version": 1
  }
}